{
  "_format": "hh-sol-artifact-1",
  "contractName": "Crowdfunding",
  "sourceName": "contracts/Crowdfunding.sol",
  "abi": [
    {
      "anonymous": false,
      "inputs": [
        {
          "indexed": true,
          "internalType": "address",
          "name": "creator",
          "type": "address"
        },
        {
          "indexed": false,
          "internalType": "string",
          "name": "description",
          "type": "string"
        },
        {
          "indexed": false,
          "internalType": "uint256",
          "name": "goal",
          "type": "uint256"
        }
      ],
      "name": "CampaignCreated",
      "type": "event"
    },
    {
      "anonymous": false,
      "inputs": [
        {
          "indexed": true,
          "internalType": "address",
          "name": "contributor",
          "type": "address"
        },
        {
          "indexed": false,
          "internalType": "uint256",
          "name": "campaignIndex",
          "type": "uint256"
        },
        {
          "indexed": false,
          "internalType": "uint256",
          "name": "amount",
          "type": "uint256"
        }
      ],
      "name": "ContributionReceived",
      "type": "event"
    },
    {
      "inputs": [
        {
          "internalType": "uint256",
          "name": "",
          "type": "uint256"
        }
      ],
      "name": "campaigns",
      "outputs": [
        {
          "internalType": "address payable",
          "name": "creator",
          "type": "address"
        },
        {
          "internalType": "string",
          "name": "description",
          "type": "string"
        },
        {
          "internalType": "uint256",
          "name": "goal",
          "type": "uint256"
        },
        {
          "internalType": "uint256",
          "name": "amountRaised",
          "type": "uint256"
        }
      ],
      "stateMutability": "view",
      "type": "function"
    },
    {
      "inputs": [
        {
          "internalType": "string",
          "name": "_description",
          "type": "string"
        },
        {
          "internalType": "uint256",
          "name": "_goal",
          "type": "uint256"
        }
      ],
      "name": "createCampaign",
      "outputs": [],
      "stateMutability": "nonpayable",
      "type": "function"
    },
    {
      "inputs": [
        {
          "internalType": "uint256",
          "name": "_campaignIndex",
          "type": "uint256"
        }
      ],
      "name": "deposit",
      "outputs": [],
      "stateMutability": "payable",
      "type": "function"
    },
    {
      "inputs": [],
      "name": "getAllCampaigns",
      "outputs": [
        {
          "components": [
            {
              "internalType": "address payable",
              "name": "creator",
              "type": "address"
            },
            {
              "internalType": "string",
              "name": "description",
              "type": "string"
            },
            {
              "internalType": "uint256",
              "name": "goal",
              "type": "uint256"
            },
            {
              "internalType": "uint256",
              "name": "amountRaised",
              "type": "uint256"
            }
          ],
          "internalType": "struct Crowdfunding.Campaign[]",
          "name": "",
          "type": "tuple[]"
        }
      ],
      "stateMutability": "view",
      "type": "function"
    },
    {
      "inputs": [
        {
          "internalType": "uint256",
          "name": "_campaignIndex",
          "type": "uint256"
        }
      ],
      "name": "getCampaign",
      "outputs": [
        {
          "internalType": "address",
          "name": "",
          "type": "address"
        },
        {
          "internalType": "string",
          "name": "",
          "type": "string"
        },
        {
          "internalType": "uint256",
          "name": "",
          "type": "uint256"
        },
        {
          "internalType": "uint256",
          "name": "",
          "type": "uint256"
        }
      ],
      "stateMutability": "view",
      "type": "function"
    },
    {
      "inputs": [],
      "name": "getCampaignCount",
      "outputs": [
        {
          "internalType": "uint256",
          "name": "",
          "type": "uint256"
        }
      ],
      "stateMutability": "view",
      "type": "function"
    },
    {
      "inputs": [
        {
          "internalType": "uint256",
          "name": "_campaignIndex",
          "type": "uint256"
        }
      ],
      "name": "withdrawFunds",
      "outputs": [],
      "stateMutability": "nonpayable",
      "type": "function"
    }
  ],
  "bytecode": "0x6080604052348015600f57600080fd5b506114518061001f6000396000f3fe6080604052600436106100705760003560e01c80636caa92181161004e5780636caa92181461011e57806386cdf60414610149578063b6b55f2514610174578063f102a67c1461019057610070565b8063141961bc14610075578063155dd5ee146100b55780635598f8cc146100de575b600080fd5b34801561008157600080fd5b5061009c600480360381019061009791906109c7565b6101b9565b6040516100ac9493929190610ad4565b60405180910390f35b3480156100c157600080fd5b506100dc60048036038101906100d791906109c7565b6102a1565b005b3480156100ea57600080fd5b50610105600480360381019061010091906109c7565b61046d565b6040516101159493929190610b41565b60405180910390f35b34801561012a57600080fd5b5061013361060b565b6040516101409190610b8d565b60405180910390f35b34801561015557600080fd5b5061015e610617565b60405161016b9190610d35565b60405180910390f35b61018e600480360381019061018991906109c7565b610772565b005b34801561019c57600080fd5b506101b760048036038101906101b29190610e8c565b61084d565b005b600081815481106101c957600080fd5b90600052602060002090600402016000915090508060000160009054906101000a900473ffffffffffffffffffffffffffffffffffffffff169080600101805461021290610f17565b80601f016020809104026020016040519081016040528092919081815260200182805461023e90610f17565b801561028b5780601f106102605761010080835404028352916020019161028b565b820191906000526020600020905b81548152906001019060200180831161026e57829003601f168201915b5050505050908060020154908060030154905084565b60008054905081106102e8576040517f08c379a00000000000000000000000000000000000000000000000000000000081526004016102df90610f94565b60405180910390fd5b60008082815481106102fd576102fc610fb4565b5b90600052602060002090600402019050806002015481600301541015610358576040517f08c379a000000000000000000000000000000000000000000000000000000000815260040161034f9061102f565b60405180910390fd5b8060000160009054906101000a900473ffffffffffffffffffffffffffffffffffffffff1673ffffffffffffffffffffffffffffffffffffffff163373ffffffffffffffffffffffffffffffffffffffff16146103ea576040517f08c379a00000000000000000000000000000000000000000000000000000000081526004016103e1906110c1565b60405180910390fd5b600081600301549050600082600301819055508160000160009054906101000a900473ffffffffffffffffffffffffffffffffffffffff1673ffffffffffffffffffffffffffffffffffffffff166108fc829081150290604051600060405180830381858888f19350505050158015610467573d6000803e3d6000fd5b50505050565b6000606060008060008054905085106104bb576040517f08c379a00000000000000000000000000000000000000000000000000000000081526004016104b290610f94565b60405180910390fd5b60008086815481106104d0576104cf610fb4565b5b90600052602060002090600402016040518060800160405290816000820160009054906101000a900473ffffffffffffffffffffffffffffffffffffffff1673ffffffffffffffffffffffffffffffffffffffff1673ffffffffffffffffffffffffffffffffffffffff16815260200160018201805461054f90610f17565b80601f016020809104026020016040519081016040528092919081815260200182805461057b90610f17565b80156105c85780601f1061059d576101008083540402835291602001916105c8565b820191906000526020600020905b8154815290600101906020018083116105ab57829003601f168201915b5050505050815260200160028201548152602001600382015481525050905080600001518160200151826040015183606001519450945094509450509193509193565b60008080549050905090565b60606000805480602002602001604051908101604052809291908181526020016000905b8282101561076957838290600052602060002090600402016040518060800160405290816000820160009054906101000a900473ffffffffffffffffffffffffffffffffffffffff1673ffffffffffffffffffffffffffffffffffffffff1673ffffffffffffffffffffffffffffffffffffffff1681526020016001820180546106c490610f17565b80601f01602080910402602001604051908101604052809291908181526020018280546106f090610f17565b801561073d5780601f106107125761010080835404028352916020019161073d565b820191906000526020600020905b81548152906001019060200180831161072057829003601f168201915b50505050508152602001600282015481526020016003820154815250508152602001906001019061063b565b50505050905090565b60008054905081106107b9576040517f08c379a00000000000000000000000000000000000000000000000000000000081526004016107b090610f94565b60405180910390fd5b60008082815481106107ce576107cd610fb4565b5b90600052602060002090600402019050348160030160008282546107f29190611110565b925050819055503373ffffffffffffffffffffffffffffffffffffffff167fd2dff949d20e874cc6ba1dcefb840fb8cf6000a4197bfb69accfea5a32443ff58334604051610841929190611144565b60405180910390a25050565b600060405180608001604052803373ffffffffffffffffffffffffffffffffffffffff16815260200184815260200183815260200160008152509050600081908060018154018082558091505060019003906000526020600020906004020160009091909190915060008201518160000160006101000a81548173ffffffffffffffffffffffffffffffffffffffff021916908373ffffffffffffffffffffffffffffffffffffffff16021790555060208201518160010190816109119190611319565b50604082015181600201556060820151816003015550503373ffffffffffffffffffffffffffffffffffffffff167ff645d5231257014315ed789c411b77c7e67b0405fd43321cea8589246e5f11c384846040516109709291906113eb565b60405180910390a2505050565b6000604051905090565b600080fd5b600080fd5b6000819050919050565b6109a481610991565b81146109af57600080fd5b50565b6000813590506109c18161099b565b92915050565b6000602082840312156109dd576109dc610987565b5b60006109eb848285016109b2565b91505092915050565b600073ffffffffffffffffffffffffffffffffffffffff82169050919050565b6000610a1f826109f4565b9050919050565b610a2f81610a14565b82525050565b600081519050919050565b600082825260208201905092915050565b60005b83811015610a6f578082015181840152602081019050610a54565b60008484015250505050565b6000601f19601f8301169050919050565b6000610a9782610a35565b610aa18185610a40565b9350610ab1818560208601610a51565b610aba81610a7b565b840191505092915050565b610ace81610991565b82525050565b6000608082019050610ae96000830187610a26565b8181036020830152610afb8186610a8c565b9050610b0a6040830185610ac5565b610b176060830184610ac5565b95945050505050565b6000610b2b826109f4565b9050919050565b610b3b81610b20565b82525050565b6000608082019050610b566000830187610b32565b8181036020830152610b688186610a8c565b9050610b776040830185610ac5565b610b846060830184610ac5565b95945050505050565b6000602082019050610ba26000830184610ac5565b92915050565b600081519050919050565b600082825260208201905092915050565b6000819050602082019050919050565b610bdd81610a14565b82525050565b600082825260208201905092915050565b6000610bff82610a35565b610c098185610be3565b9350610c19818560208601610a51565b610c2281610a7b565b840191505092915050565b610c3681610991565b82525050565b6000608083016000830151610c546000860182610bd4565b5060208301518482036020860152610c6c8282610bf4565b9150506040830151610c816040860182610c2d565b506060830151610c946060860182610c2d565b508091505092915050565b6000610cab8383610c3c565b905092915050565b6000602082019050919050565b6000610ccb82610ba8565b610cd58185610bb3565b935083602082028501610ce785610bc4565b8060005b85811015610d235784840389528151610d048582610c9f565b9450610d0f83610cb3565b925060208a01995050600181019050610ceb565b50829750879550505050505092915050565b60006020820190508181036000830152610d4f8184610cc0565b905092915050565b600080fd5b600080fd5b7f4e487b7100000000000000000000000000000000000000000000000000000000600052604160045260246000fd5b610d9982610a7b565b810181811067ffffffffffffffff82111715610db857610db7610d61565b5b80604052505050565b6000610dcb61097d565b9050610dd78282610d90565b919050565b600067ffffffffffffffff821115610df757610df6610d61565b5b610e0082610a7b565b9050602081019050919050565b82818337600083830152505050565b6000610e2f610e2a84610ddc565b610dc1565b905082815260208101848484011115610e4b57610e4a610d5c565b5b610e56848285610e0d565b509392505050565b600082601f830112610e7357610e72610d57565b5b8135610e83848260208601610e1c565b91505092915050565b60008060408385031215610ea357610ea2610987565b5b600083013567ffffffffffffffff811115610ec157610ec061098c565b5b610ecd85828601610e5e565b9250506020610ede858286016109b2565b9150509250929050565b7f4e487b7100000000000000000000000000000000000000000000000000000000600052602260045260246000fd5b60006002820490506001821680610f2f57607f821691505b602082108103610f4257610f41610ee8565b5b50919050565b7f496e76616c69642063616d706169676e20696e64657800000000000000000000600082015250565b6000610f7e601683610a40565b9150610f8982610f48565b602082019050919050565b60006020820190508181036000830152610fad81610f71565b9050919050565b7f4e487b7100000000000000000000000000000000000000000000000000000000600052603260045260246000fd5b7f43616d706169676e20676f616c206e6f74206d65740000000000000000000000600082015250565b6000611019601583610a40565b915061102482610fe3565b602082019050919050565b600060208201905081810360008301526110488161100c565b9050919050565b7f4f6e6c792063616d706169676e2063726561746f722063616e2077697468647260008201527f61772066756e6473000000000000000000000000000000000000000000000000602082015250565b60006110ab602883610a40565b91506110b68261104f565b604082019050919050565b600060208201905081810360008301526110da8161109e565b9050919050565b7f4e487b7100000000000000000000000000000000000000000000000000000000600052601160045260246000fd5b600061111b82610991565b915061112683610991565b925082820190508082111561113e5761113d6110e1565b5b92915050565b60006040820190506111596000830185610ac5565b6111666020830184610ac5565b9392505050565b60008190508160005260206000209050919050565b60006020601f8301049050919050565b600082821b905092915050565b6000600883026111cf7fffffffffffffffffffffffffffffffffffffffffffffffffffffffffffffffff82611192565b6111d98683611192565b95508019841693508086168417925050509392505050565b6000819050919050565b600061121661121161120c84610991565b6111f1565b610991565b9050919050565b6000819050919050565b611230836111fb565b61124461123c8261121d565b84845461119f565b825550505050565b600090565b61125961124c565b611264818484611227565b505050565b5b818110156112885761127d600082611251565b60018101905061126a565b5050565b601f8211156112cd5761129e8161116d565b6112a784611182565b810160208510156112b6578190505b6112ca6112c285611182565b830182611269565b50505b505050565b600082821c905092915050565b60006112f0600019846008026112d2565b1980831691505092915050565b600061130983836112df565b9150826002028217905092915050565b61132282610a35565b67ffffffffffffffff81111561133b5761133a610d61565b5b6113458254610f17565b61135082828561128c565b600060209050601f8311600181146113835760008415611371578287015190505b61137b85826112fd565b8655506113e3565b601f1984166113918661116d565b60005b828110156113b957848901518255600182019150602085019450602081019050611394565b868310156113d657848901516113d2601f8916826112df565b8355505b6001600288020188555050505b505050505050565b600060408201905081810360008301526114058185610a8c565b90506114146020830184610ac5565b939250505056fea26469706673582212206e0808a505bbf0a4a46d45d887cf33f84d7ac0df949b1da8a77f1d2dc5d5bb9264736f6c634300081b0033",
  "linkReferences": {},
  "deployedLinkReferences": {}
}