{
  "_format": "hh-sol-artifact-1",
  "contractName": "Crowdfunding",
  "sourceName": "contracts/Crowdfunding.sol",
  "abi": [
    {
      "inputs": [
        {
          "internalType": "uint256",
          "name": "",
          "type": "uint256"
        }
      ],
      "name": "campaigns",
      "outputs": [
        {
          "internalType": "address payable",
          "name": "creator",
          "type": "address"
        },
        {
          "internalType": "string",
          "name": "description",
          "type": "string"
        },
        {
          "internalType": "uint256",
          "name": "goal",
          "type": "uint256"
        },
        {
          "internalType": "uint256",
          "name": "amountRaised",
          "type": "uint256"
        }
      ],
      "stateMutability": "view",
      "type": "function"
    },
    {
      "inputs": [
        {
          "internalType": "uint256",
          "name": "_campaignIndex",
          "type": "uint256"
        }
      ],
      "name": "contribute",
      "outputs": [],
      "stateMutability": "payable",
      "type": "function"
    },
    {
      "inputs": [
        {
          "internalType": "string",
          "name": "_description",
          "type": "string"
        },
        {
          "internalType": "uint256",
          "name": "_goal",
          "type": "uint256"
        }
      ],
      "name": "createCampaign",
      "outputs": [],
      "stateMutability": "nonpayable",
      "type": "function"
    },
    {
      "inputs": [
        {
          "internalType": "uint256",
          "name": "_campaignIndex",
          "type": "uint256"
        }
      ],
      "name": "getCampaign",
      "outputs": [
        {
          "internalType": "address",
          "name": "",
          "type": "address"
        },
        {
          "internalType": "string",
          "name": "",
          "type": "string"
        },
        {
          "internalType": "uint256",
          "name": "",
          "type": "uint256"
        },
        {
          "internalType": "uint256",
          "name": "",
          "type": "uint256"
        }
      ],
      "stateMutability": "view",
      "type": "function"
    },
    {
      "inputs": [
        {
          "internalType": "uint256",
          "name": "_campaignIndex",
          "type": "uint256"
        }
      ],
      "name": "withdrawFunds",
      "outputs": [],
      "stateMutability": "nonpayable",
      "type": "function"
    }
  ],
  "bytecode": "0x6080604052348015600f57600080fd5b50610e5a8061001f6000396000f3fe60806040526004361061004a5760003560e01c8063141961bc1461004f578063155dd5ee1461008f5780635598f8cc146100b8578063c1cbbca7146100f8578063f102a67c14610114575b600080fd5b34801561005b57600080fd5b506100766004803603810190610071919061065f565b61013d565b604051610086949392919061076c565b60405180910390f35b34801561009b57600080fd5b506100b660048036038101906100b1919061065f565b610225565b005b3480156100c457600080fd5b506100df60048036038101906100da919061065f565b61039a565b6040516100ef94939291906107d9565b60405180910390f35b610112600480360381019061010d919061065f565b6104f1565b005b34801561012057600080fd5b5061013b6004803603810190610136919061095a565b610535565b005b6000818154811061014d57600080fd5b90600052602060002090600402016000915090508060000160009054906101000a900473ffffffffffffffffffffffffffffffffffffffff1690806001018054610196906109e5565b80601f01602080910402602001604051908101604052809291908181526020018280546101c2906109e5565b801561020f5780601f106101e45761010080835404028352916020019161020f565b820191906000526020600020905b8154815290600101906020018083116101f257829003601f168201915b5050505050908060020154908060030154905084565b600080828154811061023a57610239610a16565b5b90600052602060002090600402019050806002015481600301541015610295576040517f08c379a000000000000000000000000000000000000000000000000000000000815260040161028c90610a91565b60405180910390fd5b8060000160009054906101000a900473ffffffffffffffffffffffffffffffffffffffff1673ffffffffffffffffffffffffffffffffffffffff163373ffffffffffffffffffffffffffffffffffffffff1614610327576040517f08c379a000000000000000000000000000000000000000000000000000000000815260040161031e90610b23565b60405180910390fd5b8060000160009054906101000a900473ffffffffffffffffffffffffffffffffffffffff1673ffffffffffffffffffffffffffffffffffffffff166108fc82600301549081150290604051600060405180830381858888f19350505050158015610395573d6000803e3d6000fd5b505050565b6000606060008060008086815481106103b6576103b5610a16565b5b90600052602060002090600402016040518060800160405290816000820160009054906101000a900473ffffffffffffffffffffffffffffffffffffffff1673ffffffffffffffffffffffffffffffffffffffff1673ffffffffffffffffffffffffffffffffffffffff168152602001600182018054610435906109e5565b80601f0160208091040260200160405190810160405280929190818152602001828054610461906109e5565b80156104ae5780601f10610483576101008083540402835291602001916104ae565b820191906000526020600020905b81548152906001019060200180831161049157829003601f168201915b5050505050815260200160028201548152602001600382015481525050905080600001518160200151826040015183606001519450945094509450509193509193565b600080828154811061050657610505610a16565b5b906000526020600020906004020190503481600301600082825461052a9190610b72565b925050819055505050565b600060405180608001604052803373ffffffffffffffffffffffffffffffffffffffff16815260200184815260200183815260200160008152509050600081908060018154018082558091505060019003906000526020600020906004020160009091909190915060008201518160000160006101000a81548173ffffffffffffffffffffffffffffffffffffffff021916908373ffffffffffffffffffffffffffffffffffffffff16021790555060208201518160010190816105f99190610d52565b5060408201518160020155606082015181600301555050505050565b6000604051905090565b600080fd5b600080fd5b6000819050919050565b61063c81610629565b811461064757600080fd5b50565b60008135905061065981610633565b92915050565b6000602082840312156106755761067461061f565b5b60006106838482850161064a565b91505092915050565b600073ffffffffffffffffffffffffffffffffffffffff82169050919050565b60006106b78261068c565b9050919050565b6106c7816106ac565b82525050565b600081519050919050565b600082825260208201905092915050565b60005b838110156107075780820151818401526020810190506106ec565b60008484015250505050565b6000601f19601f8301169050919050565b600061072f826106cd565b61073981856106d8565b93506107498185602086016106e9565b61075281610713565b840191505092915050565b61076681610629565b82525050565b600060808201905061078160008301876106be565b81810360208301526107938186610724565b90506107a2604083018561075d565b6107af606083018461075d565b95945050505050565b60006107c38261068c565b9050919050565b6107d3816107b8565b82525050565b60006080820190506107ee60008301876107ca565b81810360208301526108008186610724565b905061080f604083018561075d565b61081c606083018461075d565b95945050505050565b600080fd5b600080fd5b7f4e487b7100000000000000000000000000000000000000000000000000000000600052604160045260246000fd5b61086782610713565b810181811067ffffffffffffffff821117156108865761088561082f565b5b80604052505050565b6000610899610615565b90506108a5828261085e565b919050565b600067ffffffffffffffff8211156108c5576108c461082f565b5b6108ce82610713565b9050602081019050919050565b82818337600083830152505050565b60006108fd6108f8846108aa565b61088f565b9050828152602081018484840111156109195761091861082a565b5b6109248482856108db565b509392505050565b600082601f83011261094157610940610825565b5b81356109518482602086016108ea565b91505092915050565b600080604083850312156109715761097061061f565b5b600083013567ffffffffffffffff81111561098f5761098e610624565b5b61099b8582860161092c565b92505060206109ac8582860161064a565b9150509250929050565b7f4e487b7100000000000000000000000000000000000000000000000000000000600052602260045260246000fd5b600060028204905060018216806109fd57607f821691505b602082108103610a1057610a0f6109b6565b5b50919050565b7f4e487b7100000000000000000000000000000000000000000000000000000000600052603260045260246000fd5b7f43616d706169676e20676f616c206e6f74206d65740000000000000000000000600082015250565b6000610a7b6015836106d8565b9150610a8682610a45565b602082019050919050565b60006020820190508181036000830152610aaa81610a6e565b9050919050565b7f4f6e6c792063616d706169676e2063726561746f722063616e2077697468647260008201527f61772066756e6473000000000000000000000000000000000000000000000000602082015250565b6000610b0d6028836106d8565b9150610b1882610ab1565b604082019050919050565b60006020820190508181036000830152610b3c81610b00565b9050919050565b7f4e487b7100000000000000000000000000000000000000000000000000000000600052601160045260246000fd5b6000610b7d82610629565b9150610b8883610629565b9250828201905080821115610ba057610b9f610b43565b5b92915050565b60008190508160005260206000209050919050565b60006020601f8301049050919050565b600082821b905092915050565b600060088302610c087fffffffffffffffffffffffffffffffffffffffffffffffffffffffffffffffff82610bcb565b610c128683610bcb565b95508019841693508086168417925050509392505050565b6000819050919050565b6000610c4f610c4a610c4584610629565b610c2a565b610629565b9050919050565b6000819050919050565b610c6983610c34565b610c7d610c7582610c56565b848454610bd8565b825550505050565b600090565b610c92610c85565b610c9d818484610c60565b505050565b5b81811015610cc157610cb6600082610c8a565b600181019050610ca3565b5050565b601f821115610d0657610cd781610ba6565b610ce084610bbb565b81016020851015610cef578190505b610d03610cfb85610bbb565b830182610ca2565b50505b505050565b600082821c905092915050565b6000610d2960001984600802610d0b565b1980831691505092915050565b6000610d428383610d18565b9150826002028217905092915050565b610d5b826106cd565b67ffffffffffffffff811115610d7457610d7361082f565b5b610d7e82546109e5565b610d89828285610cc5565b600060209050601f831160018114610dbc5760008415610daa578287015190505b610db48582610d36565b865550610e1c565b601f198416610dca86610ba6565b60005b82811015610df257848901518255600182019150602085019450602081019050610dcd565b86831015610e0f5784890151610e0b601f891682610d18565b8355505b6001600288020188555050505b50505050505056fea2646970667358221220af964521624d0598ffc44328e24bff1c1a65e869de7e5695d697d8cdfd772f9c64736f6c634300081b0033",
  "linkReferences": {},
  "deployedLinkReferences": {}
}